:020000040000FA
:1000000065000000850AE201EF08E108D408C9088C
:10001000BD08B308A9089F0896088E0886087E08C0
:10002000770870086A08FE08E2012408F40800084E
:1000300036086E08010812087A0800081B08B7087D
:10004000000809083D0800088D085B0800088408BE
:100050001E080008C6082D08000842080F080008FE
:10006000E30816080008E2015208620814081208A2
:10007000170805085208620814081208190807082A
:10008000520862081E081B081708150814085C08A7
:100090006C081B08170819080708FF082D002E0018
:1000A000AD030F0C6D0103044D03ED010D021409A6
:1000B0002800AD020D02140929008D0214092A003E
:1000C000FC0C060026050F0C6E018E0143076A0A20
:1000D000FF0C06000E0203092B0006054B02E1018E
:1000E00001024307700A06044B02E10101024307C3
:1000F000760A0B02A8000306830A010CA900030676
:10010000830AAA0003066D0A0008D10C02006C00E5
:100110000C023309FF0F4306930AFF0F4E09AC028E
:0A0120004F0C4E09880A0300940AF0
:04012A0000080008C1
:021FFE00EB0FE7
:00000001FF
