:020000040000FA
:1000000065000000000B250B2F0B5F0B700BE2014E
:10001000EF08E108D408C908BD08B308A9089F087B
:1000200096088E0886087E08770870086A08FE0819
:10003000E2019008D0080308D808B8080508480865
:10004000E80801086C08DC0802082408F408000825
:1000500036086E08010812087A0800081B08B7085D
:10006000000809083D0800088D085B080008E20147
:100070003D0A5E0A9F0AD10A050B1002E2014708F9
:1000800049084B084708290849084B082C082C0840
:100090002B082B08470849084B0847082908490836
:1000A0004B082C082E0807082E084E084C082B0871
:1000B00049084B082C082E080908FF081002E20125
:1000C000490849084A084C084C084A0849084708A2
:1000D0004508450847084908590867082708490896
:1000E00049084A084C084C084A0849084708450886
:1000F000450847084908570865082508470847087C
:1001000049084508470869086A0849084508470832
:1001100069086A0849084708450847082008490847
:1001200049084A084C084C084A0849084708450845
:10013000450847084908570865082508FF081002C0
:10014000E20140087508450845084708790849084C
:1001500059086908670869084A08440847084508B3
:100160006F086C086C0869085E084C084C086A083F
:100170005A086A086A0867085C086A086A08690811
:10018000490840087508450845084708790849089E
:1001900059086908670869084A0844084708250893
:1001A000FF081002E201270847084B084B084908DE
:1001B0004B084708270847084B084B0849082B08F5
:1001C0002B084B08490847084B084E084B082E08D7
:1001D0004E084B0847084B082908270847084B08D2
:1001E0004B08690867084B0847082B084B08690843
:0A01F00067084B0849082708FF08BC
:0401FA0000080008F1
:10020000510C02006F00E306070B72007202B2028B
:10021000700012023709FF0F4306230BFF0F330054
:10022000C00C5301C00F43071F0B9303030E2F0095
:10023000B002010C2100010243071B0B090B130242
:100240000609B002090B0300070B0E02A800030603
:100250000008010CA90003060008AA0000080F020C
:100260004306440B010F43063C0B0A022D00090212
:100270002C0008022B005D0B03040A032D00090368
:100280002C0008032B005D0B03040A032D00090357
:100290002C0008032B0003040D0337000C03360069
:1002A0000B03EB01010C0306EC010306ED01160242
:1002B000EC010306AD021702ED011105000811075C
:1002C00000080E02AB0003060008010CAC00030698
:1002D0000008AD0003060008FE0C0600110400082B
:1002E00033003400B3030F0C730103045303F30111
:1002F000130218092800B3021302180929009302F7
:1003000018092A00F80C0600460426050F0C740193
:10031000940143078E0B2604FD0C06000409140209
:1003200007092E0006054E02E101050901024307F7
:10033000960B06044E02E1010309030700080102BF
:0603400043079F0B920B26
:021FFE00EB0FE7
:00000001FF
